{"abi":[{"type":"function","name":"addValue","inputs":[{"name":"inValue","type":"tuple","internalType":"struct InEuint32","components":[{"name":"ctHash","type":"uint256","internalType":"uint256"},{"name":"securityZone","type":"uint8","internalType":"uint8"},{"name":"utype","type":"uint8","internalType":"uint8"},{"name":"signature","type":"bytes","internalType":"bytes"}]}],"outputs":[],"stateMutability":"nonpayable"},{"type":"function","name":"addValueTrivial","inputs":[{"name":"inValue","type":"uint256","internalType":"uint256"}],"outputs":[],"stateMutability":"nonpayable"},{"type":"function","name":"getDecryptResultSafe","inputs":[{"name":"input","type":"bytes32","internalType":"euint32"}],"outputs":[{"name":"value","type":"uint32","internalType":"uint32"},{"name":"decrypted","type":"bool","internalType":"bool"}],"stateMutability":"view"},{"type":"function","name":"getValue","inputs":[],"outputs":[{"name":"","type":"bytes32","internalType":"euint32"}],"stateMutability":"view"},{"type":"function","name":"getValueHash","inputs":[],"outputs":[{"name":"","type":"bytes32","internalType":"bytes32"}],"stateMutability":"view"},{"type":"function","name":"publicValue","inputs":[],"outputs":[{"name":"","type":"bytes32","internalType":"euint32"}],"stateMutability":"view"},{"type":"function","name":"publicValueHash","inputs":[],"outputs":[{"name":"","type":"bytes32","internalType":"bytes32"}],"stateMutability":"view"},{"type":"function","name":"publishDecryptResult","inputs":[{"name":"input","type":"bytes32","internalType":"euint32"},{"name":"result","type":"uint32","internalType":"uint32"},{"name":"signature","type":"bytes","internalType":"bytes"}],"outputs":[],"stateMutability":"nonpayable"},{"type":"function","name":"setPublicValue","inputs":[{"name":"inValue","type":"tuple","internalType":"struct InEuint32","components":[{"name":"ctHash","type":"uint256","internalType":"uint256"},{"name":"securityZone","type":"uint8","internalType":"uint8"},{"name":"utype","type":"uint8","internalType":"uint8"},{"name":"signature","type":"bytes","internalType":"bytes"}]}],"outputs":[],"stateMutability":"nonpayable"},{"type":"function","name":"setPublicValueTrivial","inputs":[{"name":"inValue","type":"uint256","internalType":"uint256"}],"outputs":[],"stateMutability":"nonpayable"},{"type":"function","name":"setValue","inputs":[{"name":"inValue","type":"tuple","internalType":"struct InEuint32","components":[{"name":"ctHash","type":"uint256","internalType":"uint256"},{"name":"securityZone","type":"uint8","internalType":"uint8"},{"name":"utype","type":"uint8","internalType":"uint8"},{"name":"signature","type":"bytes","internalType":"bytes"}]}],"outputs":[],"stateMutability":"nonpayable"},{"type":"function","name":"setValueTrivial","inputs":[{"name":"inValue","type":"uint256","internalType":"uint256"}],"outputs":[],"stateMutability":"nonpayable"},{"type":"function","name":"storedValue","inputs":[],"outputs":[{"name":"","type":"bytes32","internalType":"euint32"}],"stateMutability":"view"},{"type":"function","name":"storedValueHash","inputs":[],"outputs":[{"name":"","type":"bytes32","internalType":"bytes32"}],"stateMutability":"view"},{"type":"error","name":"InvalidEncryptedInput","inputs":[{"name":"got","type":"uint8","internalType":"uint8"},{"name":"expected","type":"uint8","internalType":"uint8"}]},{"type":"error","name":"SecurityZoneOutOfBounds","inputs":[{"name":"value","type":"int32","internalType":"int32"}]}],"bytecode":{"object":"0x6080604052348015600e575f5ffd5b506115f58061001c5f395ff3fe608060405234801561000f575f5ffd5b50600436106100e8575f3560e01c80636d619daa1161008a5780639a877e50116100645780639a877e5014610221578063ab8a9dc51461023f578063c79da4001461025b578063d3c0bc4c14610279576100e8565b80636d619daa146101cb5780637046da98146101e957806388762d8114610205576100e8565b8063481924fb116100c6578063481924fb1461015757806350dd3e7b1461017557806353246da71461019157806359f12755146101ad576100e8565b80630519f1fd146100ec5780632096525514610108578063260ec88914610126575b5f5ffd5b61010660048036038101906101019190610ed1565b610295565b005b6101106102bb565b60405161011d9190610f41565b60405180910390f35b610140600480360381019061013b9190610f84565b6102c3565b60405161014e929190610fe7565b60405180910390f35b61015f6102d7565b60405161016c919061101d565b60405180910390f35b61018f600480360381019061018a9190610ed1565b6102dd565b005b6101ab60048036038101906101a69190611036565b610319565b005b6101b561033f565b6040516101c29190610f41565b60405180910390f35b6101d3610345565b6040516101e09190610f41565b60405180910390f35b61020360048036038101906101fe9190611036565b61034a565b005b61021f600480360381019061021a919061108b565b610386565b005b610229610396565b604051610236919061101d565b60405180910390f35b61025960048036038101906102549190610ed1565b61039f565b005b6102636103cc565b604051610270919061101d565b60405180910390f35b610293600480360381019061028e9190611036565b6103d2565b005b61029e816103ff565b6002819055506002546003819055506102b8600254610427565b50565b5f5f54905090565b5f5f6102ce836104a6565b91509150915091565b60035481565b5f6102e7826103ff565b90506102f45f54826104c4565b5f819055505f5460018190555061030b5f5461050d565b6103155f5461058e565b5050565b6103228161060f565b60028190555060025460038190555061033c600254610427565b50565b60025481565b5f5481565b5f6103548261060f565b90506103615f54826104c4565b5f819055505f546001819055506103785f5461050d565b6103825f5461058e565b5050565b610391838383610621565b505050565b5f600154905090565b6103a8816103ff565b5f819055505f546001819055506103bf5f5461050d565b6103c95f5461058e565b50565b60015481565b6103db8161060f565b5f819055505f546001819055506103f25f5461050d565b6103fc5f5461058e565b50565b5f61040f82604001516004610637565b61042061041b83610687565b6106c9565b9050919050565b73ea30c4b8b44078bbf8a6ef5b9f1ec1626c7848d973ffffffffffffffffffffffffffffffffffffffff166334ef1e5a825f1c6040518263ffffffff1660e01b81526004016104769190611106565b5f604051808303815f87803b15801561048d575f5ffd5b505af115801561049f573d5f5f3e3d5ffd5b5050505050565b5f5f5f5f6104b385610762565b915091508181935093505050915091565b5f6104ce836107fa565b6104de576104db5f61060f565b92505b6104e7826107fa565b6104f7576104f45f61060f565b91505b61050560048484600861080b565b905092915050565b73ea30c4b8b44078bbf8a6ef5b9f1ec1626c7848d973ffffffffffffffffffffffffffffffffffffffff166365d0509c825f1c306040518363ffffffff1660e01b815260040161055e92919061115e565b5f604051808303815f87803b158015610575575f5ffd5b505af1158015610587573d5f5f3e3d5ffd5b5050505050565b73ea30c4b8b44078bbf8a6ef5b9f1ec1626c7848d973ffffffffffffffffffffffffffffffffffffffff166365d0509c825f1c336040518363ffffffff1660e01b81526004016105df92919061115e565b5f604051808303815f87803b1580156105f6575f5ffd5b505af1158015610608573d5f5f3e3d5ffd5b5050505050565b5f61061a825f6108fc565b9050919050565b610632838363ffffffff1683610916565b505050565b8060ff168260ff16146106835781816040517f67cf307100000000000000000000000000000000000000000000000000000000815260040161067a929190611194565b60405180910390fd5b5050565b61068f610c57565b6040518060800160405280835f01518152602001836020015160ff168152602001600460ff16815260200183606001518152509050919050565b5f73ea30c4b8b44078bbf8a6ef5b9f1ec1626c7848d973ffffffffffffffffffffffffffffffffffffffff166327f9c76283336040518363ffffffff1660e01b8152600401610719929190611299565b6020604051808303815f875af1158015610735573d5f5f3e3d5ffd5b505050506040513d601f19601f8201168201806040525081019061075991906112db565b5f1b9050919050565b5f5f73ea30c4b8b44078bbf8a6ef5b9f1ec1626c7848d973ffffffffffffffffffffffffffffffffffffffff1663458693c9845f1c6040518263ffffffff1660e01b81526004016107b39190611106565b6040805180830381865afa1580156107cd573d5f5f3e3d5ffd5b505050506040513d601f19601f820116820180604052508101906107f19190611330565b91509150915091565b5f6108048261099b565b9050919050565b5f73ea30c4b8b44078bbf8a6ef5b9f1ec1626c7848d973ffffffffffffffffffffffffffffffffffffffff16631888debd868461084888886109a9565b5f67ffffffffffffffff81111561086257610861610ca7565b5b6040519080825280602002602001820160405280156108905781602001602082028036833780820191505090505b506040518563ffffffff1660e01b81526004016108b09493929190611489565b6020604051808303815f875af11580156108cc573d5f5f3e3d5ffd5b505050506040513d601f19601f820116820180604052508101906108f091906112db565b5f1b9050949350505050565b5f5f61090a84600485610a47565b90508091505092915050565b73ea30c4b8b44078bbf8a6ef5b9f1ec1626c7848d973ffffffffffffffffffffffffffffffffffffffff166318683701845f1c84846040518463ffffffff1660e01b815260040161096993929190611522565b5f604051808303815f87803b158015610980575f5ffd5b505af1158015610992573d5f5f3e3d5ffd5b50505050505050565b5f5f5f1b8214159050919050565b60605f600267ffffffffffffffff8111156109c7576109c6610ca7565b5b6040519080825280602002602001820160405280156109f55781602001602082028036833780820191505090505b509050835f1c815f81518110610a0e57610a0d61155e565b5b602002602001018181525050825f1c81600181518110610a3157610a3061155e565b5b6020026020010181815250508091505092915050565b5f73ea30c4b8b44078bbf8a6ef5b9f1ec1626c7848d973ffffffffffffffffffffffffffffffffffffffff16631888debd84601a5f67ffffffffffffffff811115610a9557610a94610ca7565b5b604051908082528060200260200182016040528015610ac35781602001602082028036833780820191505090505b50610ada898960ff16610ad58a610b44565b610b9b565b6040518563ffffffff1660e01b8152600401610af99493929190611489565b6020604051808303815f875af1158015610b15573d5f5f3e3d5ffd5b505050506040513d601f19601f82011682018060405250810190610b3991906112db565b5f1b90509392505050565b5f5f8260030b1215610b8d57816040517f8f568bf8000000000000000000000000000000000000000000000000000000008152600401610b8491906115a6565b60405180910390fd5b8163ffffffff169050919050565b60605f600367ffffffffffffffff811115610bb957610bb8610ca7565b5b604051908082528060200260200182016040528015610be75781602001602082028036833780820191505090505b50905084815f81518110610bfe57610bfd61155e565b5b6020026020010181815250508381600181518110610c1f57610c1e61155e565b5b6020026020010181815250508281600281518110610c4057610c3f61155e565b5b602002602001018181525050809150509392505050565b60405180608001604052805f81526020015f60ff1681526020015f60ff168152602001606081525090565b5f604051905090565b5f5ffd5b5f5ffd5b5f5ffd5b5f601f19601f8301169050919050565b7f4e487b71000000000000000000000000000000000000000000000000000000005f52604160045260245ffd5b610cdd82610c97565b810181811067ffffffffffffffff82111715610cfc57610cfb610ca7565b5b80604052505050565b5f610d0e610c82565b9050610d1a8282610cd4565b919050565b5f5ffd5b5f819050919050565b610d3581610d23565b8114610d3f575f5ffd5b50565b5f81359050610d5081610d2c565b92915050565b5f60ff82169050919050565b610d6b81610d56565b8114610d75575f5ffd5b50565b5f81359050610d8681610d62565b92915050565b5f5ffd5b5f5ffd5b5f67ffffffffffffffff821115610dae57610dad610ca7565b5b610db782610c97565b9050602081019050919050565b828183375f83830152505050565b5f610de4610ddf84610d94565b610d05565b905082815260208101848484011115610e0057610dff610d90565b5b610e0b848285610dc4565b509392505050565b5f82601f830112610e2757610e26610d8c565b5b8135610e37848260208601610dd2565b91505092915050565b5f60808284031215610e5557610e54610c93565b5b610e5f6080610d05565b90505f610e6e84828501610d42565b5f830152506020610e8184828501610d78565b6020830152506040610e9584828501610d78565b604083015250606082013567ffffffffffffffff811115610eb957610eb8610d1f565b5b610ec584828501610e13565b60608301525092915050565b5f60208284031215610ee657610ee5610c8b565b5b5f82013567ffffffffffffffff811115610f0357610f02610c8f565b5b610f0f84828501610e40565b91505092915050565b5f819050919050565b5f610f2b82610f18565b9050919050565b610f3b81610f21565b82525050565b5f602082019050610f545f830184610f32565b92915050565b610f6381610f18565b8114610f6d575f5ffd5b50565b5f81359050610f7e81610f5a565b92915050565b5f60208284031215610f9957610f98610c8b565b5b5f610fa684828501610f70565b91505092915050565b5f63ffffffff82169050919050565b610fc781610faf565b82525050565b5f8115159050919050565b610fe181610fcd565b82525050565b5f604082019050610ffa5f830185610fbe565b6110076020830184610fd8565b9392505050565b61101781610f18565b82525050565b5f6020820190506110305f83018461100e565b92915050565b5f6020828403121561104b5761104a610c8b565b5b5f61105884828501610d42565b91505092915050565b61106a81610faf565b8114611074575f5ffd5b50565b5f8135905061108581611061565b92915050565b5f5f5f606084860312156110a2576110a1610c8b565b5b5f6110af86828701610f70565b93505060206110c086828701611077565b925050604084013567ffffffffffffffff8111156110e1576110e0610c8f565b5b6110ed86828701610e13565b9150509250925092565b61110081610d23565b82525050565b5f6020820190506111195f8301846110f7565b92915050565b5f73ffffffffffffffffffffffffffffffffffffffff82169050919050565b5f6111488261111f565b9050919050565b6111588161113e565b82525050565b5f6040820190506111715f8301856110f7565b61117e602083018461114f565b9392505050565b61118e81610d56565b82525050565b5f6040820190506111a75f830185611185565b6111b46020830184611185565b9392505050565b6111c481610d23565b82525050565b6111d381610d56565b82525050565b5f81519050919050565b5f82825260208201905092915050565b8281835e5f83830152505050565b5f61120b826111d9565b61121581856111e3565b93506112258185602086016111f3565b61122e81610c97565b840191505092915050565b5f608083015f83015161124e5f8601826111bb565b50602083015161126160208601826111ca565b50604083015161127460408601826111ca565b506060830151848203606086015261128c8282611201565b9150508091505092915050565b5f6040820190508181035f8301526112b18185611239565b90506112c0602083018461114f565b9392505050565b5f815190506112d581610d2c565b92915050565b5f602082840312156112f0576112ef610c8b565b5b5f6112fd848285016112c7565b91505092915050565b61130f81610fcd565b8114611319575f5ffd5b50565b5f8151905061132a81611306565b92915050565b5f5f6040838503121561134657611345610c8b565b5b5f611353858286016112c7565b92505060206113648582860161131c565b9150509250929050565b7f4e487b71000000000000000000000000000000000000000000000000000000005f52602160045260245ffd5b602081106113ac576113ab61136e565b5b50565b5f8190506113bc8261139b565b919050565b5f6113cb826113af565b9050919050565b6113db816113c1565b82525050565b5f81519050919050565b5f82825260208201905092915050565b5f819050602082019050919050565b5f61141583836111bb565b60208301905092915050565b5f602082019050919050565b5f611437826113e1565b61144181856113eb565b935061144c836113fb565b805f5b8381101561147c578151611463888261140a565b975061146e83611421565b92505060018101905061144f565b5085935050505092915050565b5f60808201905061149c5f830187611185565b6114a960208301866113d2565b81810360408301526114bb818561142d565b905081810360608301526114cf818461142d565b905095945050505050565b5f82825260208201905092915050565b5f6114f4826111d9565b6114fe81856114da565b935061150e8185602086016111f3565b61151781610c97565b840191505092915050565b5f6060820190506115355f8301866110f7565b61154260208301856110f7565b818103604083015261155481846114ea565b9050949350505050565b7f4e487b71000000000000000000000000000000000000000000000000000000005f52603260045260245ffd5b5f8160030b9050919050565b6115a08161158b565b82525050565b5f6020820190506115b95f830184611597565b9291505056fea26469706673582212209939708c924ee2579b6f0836d1df300a03f0c2dffb0a3845e2cb6e4af521216164736f6c63430008210033","linkReferences":{}},"methodIdentifiers":{"addValue((uint256,uint8,uint8,bytes))":"50dd3e7b","addValueTrivial(uint256)":"7046da98","getDecryptResultSafe(bytes32)":"260ec889","getValue()":"20965255","getValueHash()":"9a877e50","publicValue()":"59f12755","publicValueHash()":"481924fb","publishDecryptResult(bytes32,uint32,bytes)":"88762d81","setPublicValue((uint256,uint8,uint8,bytes))":"0519f1fd","setPublicValueTrivial(uint256)":"53246da7","setValue((uint256,uint8,uint8,bytes))":"ab8a9dc5","setValueTrivial(uint256)":"d3c0bc4c","storedValue()":"6d619daa","storedValueHash()":"c79da400"},"id":0}